{
  "contractName": "Kontest",
  "abi": [
    {
      "constant": true,
      "inputs": [],
      "name": "kontestantsCount",
      "outputs": [
        {
          "name": "",
          "type": "uint256"
        }
      ],
      "payable": false,
      "stateMutability": "view",
      "type": "function"
    },
    {
      "constant": true,
      "inputs": [
        {
          "name": "",
          "type": "uint256"
        }
      ],
      "name": "kontestants",
      "outputs": [
        {
          "name": "id",
          "type": "uint256"
        },
        {
          "name": "name",
          "type": "string"
        },
        {
          "name": "voteCount",
          "type": "uint256"
        }
      ],
      "payable": false,
      "stateMutability": "view",
      "type": "function"
    },
    {
      "constant": true,
      "inputs": [
        {
          "name": "",
          "type": "address"
        }
      ],
      "name": "voters",
      "outputs": [
        {
          "name": "",
          "type": "bool"
        }
      ],
      "payable": false,
      "stateMutability": "view",
      "type": "function"
    },
    {
      "inputs": [],
      "payable": false,
      "stateMutability": "nonpayable",
      "type": "constructor"
    },
    {
      "anonymous": false,
      "inputs": [
        {
          "indexed": true,
          "name": "_kontestantId",
          "type": "uint256"
        }
      ],
      "name": "votedEvent",
      "type": "event"
    },
    {
      "constant": false,
      "inputs": [
        {
          "name": "_kontestantId",
          "type": "uint256"
        }
      ],
      "name": "vote",
      "outputs": [],
      "payable": false,
      "stateMutability": "nonpayable",
      "type": "function"
    }
  ],
  "bytecode": "0x608060405234801561001057600080fd5b5061005e6040805190810160405280600381526020017f546f6d00000000000000000000000000000000000000000000000000000000008152506100b0640100000000026401000000009004565b6100ab6040805190810160405280600581526020017f4a657272790000000000000000000000000000000000000000000000000000008152506100b0640100000000026401000000009004565b6101d1565b60026000815480929190600101919050555060606040519081016040528060025481526020018281526020016000815250600080600254815260200190815260200160002060008201518160000155602082015181600101908051906020019061011b92919061012c565b506040820151816002015590505050565b828054600181600116156101000203166002900490600052602060002090601f016020900481019282601f1061016d57805160ff191683800117855561019b565b8280016001018555821561019b579182015b8281111561019a57825182559160200191906001019061017f565b5b5090506101a891906101ac565b5090565b6101ce91905b808211156101ca5760008160009055506001016101b2565b5090565b90565b610404806101e06000396000f300608060405260043610610062576000357c0100000000000000000000000000000000000000000000000000000000900463ffffffff1680630121b93f146100675780630628acbd146100945780631a79da97146100bf578063a3ec138d14610173575b600080fd5b34801561007357600080fd5b50610092600480360381019080803590602001909291905050506101ce565b005b3480156100a057600080fd5b506100a96102f0565b6040518082815260200191505060405180910390f35b3480156100cb57600080fd5b506100ea600480360381019080803590602001909291905050506102f6565b6040518084815260200180602001838152602001828103825284818151815260200191508051906020019080838360005b8381101561013657808201518184015260208101905061011b565b50505050905090810190601f1680156101635780820380516001836020036101000a031916815260200191505b5094505050505060405180910390f35b34801561017f57600080fd5b506101b4600480360381019080803573ffffffffffffffffffffffffffffffffffffffff1690602001909291905050506103b8565b604051808215151515815260200191505060405180910390f35b600160003373ffffffffffffffffffffffffffffffffffffffff1673ffffffffffffffffffffffffffffffffffffffff16815260200190815260200160002060009054906101000a900460ff1615151561022757600080fd5b60008111801561023957506002548111155b151561024457600080fd5b6000808281526020019081526020016000206002016000815480929190600101919050555060018060003373ffffffffffffffffffffffffffffffffffffffff1673ffffffffffffffffffffffffffffffffffffffff16815260200190815260200160002060006101000a81548160ff021916908315150217905550807ffff3c900d938d21d0990d786e819f29b8d05c1ef587b462b939609625b684b1660405160405180910390a250565b60025481565b6000602052806000526040600020600091509050806000015490806001018054600181600116156101000203166002900480601f0160208091040260200160405190810160405280929190818152602001828054600181600116156101000203166002900480156103a85780601f1061037d576101008083540402835291602001916103a8565b820191906000526020600020905b81548152906001019060200180831161038b57829003601f168201915b5050505050908060020154905083565b60016020528060005260406000206000915054906101000a900460ff16815600a165627a7a72305820314a0407cb7cc8ddf9d2cfc06fb4bf70430595f56b5ec79a9dfdfb8edd4b551a0029",
  "source": "pragma solidity ^0.4.24;\n\n//creating the contract\ncontract Kontest {\n\n\t//create a structure modeling the kontestant\n\tstruct Kontestant {\n\t\tuint id;\n\t\tstring name;\n\t\tuint voteCount;\n\t}\n\t//mapping to fetch the kontestant details\n\tmapping(uint => Kontestant) public kontestants;\n\n\t//keep a list of users who cast the vote\n\tmapping(address => bool) public voters;\n\n\t//keep track of kontestants count \n\tuint public kontestantsCount;\n\n\tevent votedEvent(\n\t\tuint indexed _kontestantId\n\t);\n\n\tfunction Kontest () public {\n\t\taddKontenstant(\"Tom\");\n\t\taddKontenstant(\"Jerry\");\n\t}\n\t//add a kontestant\n\tfunction addKontenstant(string _name) private {\n\t\tkontestantsCount++;\n\t\tkontestants[kontestantsCount] = Kontestant(kontestantsCount, _name, 0);\n\t}\n\t//prevent from duplicate voting\n\tfunction vote (uint _kontestantId) public {\n\n\t\trequire (!voters[msg.sender]);\n\t\trequire(_kontestantId > 0 && _kontestantId <= kontestantsCount);\n\n\t\t//increment the voters vote count \n\t\tkontestants[_kontestantId].voteCount++ ;\n\n\t\t//set the voters voted status to true\n\t\tvoters[msg.sender] = true;\n\t\t\n\t\t//trigger the votedEvent\n\t\tvotedEvent(_kontestantId);\n\n\t}\n}",
  "sourcePath": "/Users/PJoshi/Documents/Projects/jsblockchain/kontest/contracts/kontest.sol",
  "compiler": {
    "name": "solc",
    "version": "0.4.24+commit.e67f0147.Emscripten.clang"
  },
  "schemaVersion": "2.0.1",
  "updatedAt": "2018-09-28T13:57:10.736Z"
}